{
	"contracts/exampleEvent.sol": {
		"EventExample": {
			"abi": [
				{
					"inputs": [],
					"stateMutability": "nonpayable",
					"type": "constructor"
				},
				{
					"anonymous": false,
					"inputs": [
						{
							"indexed": false,
							"internalType": "address",
							"name": "_from",
							"type": "address"
						},
						{
							"indexed": false,
							"internalType": "address",
							"name": "_to",
							"type": "address"
						},
						{
							"indexed": false,
							"internalType": "uint256",
							"name": "_amount",
							"type": "uint256"
						}
					],
					"name": "tokenSent",
					"type": "event"
				},
				{
					"inputs": [
						{
							"internalType": "address",
							"name": "_to",
							"type": "address"
						},
						{
							"internalType": "uint256",
							"name": "_amount",
							"type": "uint256"
						}
					],
					"name": "sendToken",
					"outputs": [],
					"stateMutability": "nonpayable",
					"type": "function"
				}
			],
			"devdoc": {
				"kind": "dev",
				"methods": {},
				"version": 1
			},
			"evm": {
				"assembly": "    /* \"contracts/exampleEvent.sol\":60:520  contract EventExample{... */\n  mstore(0x40, 0x80)\n    /* \"contracts/exampleEvent.sol\":195:252  constructor(){... */\n  callvalue\n  dup1\n  iszero\n  tag_1\n  jumpi\n  0x00\n  dup1\n  revert\ntag_1:\n  pop\n    /* \"contracts/exampleEvent.sol\":241:244  100 */\n  0x64\n    /* \"contracts/exampleEvent.sol\":219:226  balance */\n  0x00\n    /* \"contracts/exampleEvent.sol\":219:238  balance[msg.sender] */\n  dup1\n    /* \"contracts/exampleEvent.sol\":227:237  msg.sender */\n  caller\n    /* \"contracts/exampleEvent.sol\":219:238  balance[msg.sender] */\n  0xffffffffffffffffffffffffffffffffffffffff\n  and\n  0xffffffffffffffffffffffffffffffffffffffff\n  and\n  dup2\n  mstore\n  0x20\n  add\n  swap1\n  dup2\n  mstore\n  0x20\n  add\n  0x00\n  keccak256\n    /* \"contracts/exampleEvent.sol\":219:244  balance[msg.sender] = 100 */\n  dup2\n  swap1\n  sstore\n  pop\n    /* \"contracts/exampleEvent.sol\":60:520  contract EventExample{... */\n  dataSize(sub_0)\n  dup1\n  dataOffset(sub_0)\n  0x00\n  codecopy\n  0x00\n  return\nstop\n\nsub_0: assembly {\n        /* \"contracts/exampleEvent.sol\":60:520  contract EventExample{... */\n      mstore(0x40, 0x80)\n      callvalue\n      dup1\n      iszero\n      tag_1\n      jumpi\n      0x00\n      dup1\n      revert\n    tag_1:\n      pop\n      jumpi(tag_2, lt(calldatasize, 0x04))\n      shr(0xe0, calldataload(0x00))\n      dup1\n      0x412664ae\n      eq\n      tag_3\n      jumpi\n    tag_2:\n      0x00\n      dup1\n      revert\n        /* \"contracts/exampleEvent.sol\":260:517  function sendToken(address _to, uint _amount) public {... */\n    tag_3:\n      tag_4\n      0x04\n      dup1\n      calldatasize\n      sub\n      dup2\n      add\n      swap1\n      tag_5\n      swap2\n      swap1\n      tag_6\n      jump\t// in\n    tag_5:\n      tag_7\n      jump\t// in\n    tag_4:\n      stop\n    tag_7:\n        /* \"contracts/exampleEvent.sol\":353:360  _amount */\n      dup1\n        /* \"contracts/exampleEvent.sol\":332:339  balance */\n      0x00\n        /* \"contracts/exampleEvent.sol\":332:351  balance[msg.sender] */\n      dup1\n        /* \"contracts/exampleEvent.sol\":340:350  msg.sender */\n      caller\n        /* \"contracts/exampleEvent.sol\":332:351  balance[msg.sender] */\n      0xffffffffffffffffffffffffffffffffffffffff\n      and\n      0xffffffffffffffffffffffffffffffffffffffff\n      and\n      dup2\n      mstore\n      0x20\n      add\n      swap1\n      dup2\n      mstore\n      0x20\n      add\n      0x00\n      keccak256\n      sload\n        /* \"contracts/exampleEvent.sol\":332:360  balance[msg.sender]>=_amount */\n      lt\n      iszero\n        /* \"contracts/exampleEvent.sol\":324:383  require(balance[msg.sender]>=_amount,\"insufficent balance\") */\n      tag_9\n      jumpi\n      mload(0x40)\n      0x08c379a000000000000000000000000000000000000000000000000000000000\n      dup2\n      mstore\n      0x04\n      add\n      tag_10\n      swap1\n      tag_11\n      jump\t// in\n    tag_10:\n      mload(0x40)\n      dup1\n      swap2\n      sub\n      swap1\n      revert\n    tag_9:\n        /* \"contracts/exampleEvent.sol\":417:424  _amount */\n      dup1\n        /* \"contracts/exampleEvent.sol\":394:401  balance */\n      0x00\n        /* \"contracts/exampleEvent.sol\":394:413  balance[msg.sender] */\n      dup1\n        /* \"contracts/exampleEvent.sol\":402:412  msg.sender */\n      caller\n        /* \"contracts/exampleEvent.sol\":394:413  balance[msg.sender] */\n      0xffffffffffffffffffffffffffffffffffffffff\n      and\n      0xffffffffffffffffffffffffffffffffffffffff\n      and\n      dup2\n      mstore\n      0x20\n      add\n      swap1\n      dup2\n      mstore\n      0x20\n      add\n      0x00\n      keccak256\n      0x00\n        /* \"contracts/exampleEvent.sol\":394:424  balance[msg.sender] -= _amount */\n      dup3\n      dup3\n      sload\n      tag_12\n      swap2\n      swap1\n      tag_13\n      jump\t// in\n    tag_12:\n      swap3\n      pop\n      pop\n      dup2\n      swap1\n      sstore\n      pop\n        /* \"contracts/exampleEvent.sol\":451:458  _amount */\n      dup1\n        /* \"contracts/exampleEvent.sol\":435:442  balance */\n      0x00\n        /* \"contracts/exampleEvent.sol\":435:447  balance[_to] */\n      dup1\n        /* \"contracts/exampleEvent.sol\":443:446  _to */\n      dup5\n        /* \"contracts/exampleEvent.sol\":435:447  balance[_to] */\n      0xffffffffffffffffffffffffffffffffffffffff\n      and\n      0xffffffffffffffffffffffffffffffffffffffff\n      and\n      dup2\n      mstore\n      0x20\n      add\n      swap1\n      dup2\n      mstore\n      0x20\n      add\n      0x00\n      keccak256\n      0x00\n        /* \"contracts/exampleEvent.sol\":435:458  balance[_to] += _amount */\n      dup3\n      dup3\n      sload\n      tag_14\n      swap2\n      swap1\n      tag_15\n      jump\t// in\n    tag_14:\n      swap3\n      pop\n      pop\n      dup2\n      swap1\n      sstore\n      pop\n        /* \"contracts/exampleEvent.sol\":474:509  tokenSent(msg.sender, _to, _amount) */\n      0x16a1605b4e6210f29341360b5a5b4627b7ccf2bbb184f1d0c2ebe1a07ad4a315\n        /* \"contracts/exampleEvent.sol\":484:494  msg.sender */\n      caller\n        /* \"contracts/exampleEvent.sol\":496:499  _to */\n      dup4\n        /* \"contracts/exampleEvent.sol\":501:508  _amount */\n      dup4\n        /* \"contracts/exampleEvent.sol\":474:509  tokenSent(msg.sender, _to, _amount) */\n      mload(0x40)\n      tag_16\n      swap4\n      swap3\n      swap2\n      swap1\n      tag_17\n      jump\t// in\n    tag_16:\n      mload(0x40)\n      dup1\n      swap2\n      sub\n      swap1\n      log1\n        /* \"contracts/exampleEvent.sol\":260:517  function sendToken(address _to, uint _amount) public {... */\n      pop\n      pop\n      jump\t// out\n        /* \"#utility.yul\":88:205   */\n    tag_19:\n        /* \"#utility.yul\":197:198   */\n      0x00\n        /* \"#utility.yul\":194:195   */\n      dup1\n        /* \"#utility.yul\":187:199   */\n      revert\n        /* \"#utility.yul\":334:460   */\n    tag_21:\n        /* \"#utility.yul\":371:378   */\n      0x00\n        /* \"#utility.yul\":411:453   */\n      0xffffffffffffffffffffffffffffffffffffffff\n        /* \"#utility.yul\":404:409   */\n      dup3\n        /* \"#utility.yul\":400:454   */\n      and\n        /* \"#utility.yul\":389:454   */\n      swap1\n      pop\n        /* \"#utility.yul\":334:460   */\n      swap2\n      swap1\n      pop\n      jump\t// out\n        /* \"#utility.yul\":466:562   */\n    tag_22:\n        /* \"#utility.yul\":503:510   */\n      0x00\n        /* \"#utility.yul\":532:556   */\n      tag_40\n        /* \"#utility.yul\":550:555   */\n      dup3\n        /* \"#utility.yul\":532:556   */\n      tag_21\n      jump\t// in\n    tag_40:\n        /* \"#utility.yul\":521:556   */\n      swap1\n      pop\n        /* \"#utility.yul\":466:562   */\n      swap2\n      swap1\n      pop\n      jump\t// out\n        /* \"#utility.yul\":568:690   */\n    tag_23:\n        /* \"#utility.yul\":641:665   */\n      tag_42\n        /* \"#utility.yul\":659:664   */\n      dup2\n        /* \"#utility.yul\":641:665   */\n      tag_22\n      jump\t// in\n    tag_42:\n        /* \"#utility.yul\":634:639   */\n      dup2\n        /* \"#utility.yul\":631:666   */\n      eq\n        /* \"#utility.yul\":621:684   */\n      tag_43\n      jumpi\n        /* \"#utility.yul\":680:681   */\n      0x00\n        /* \"#utility.yul\":677:678   */\n      dup1\n        /* \"#utility.yul\":670:682   */\n      revert\n        /* \"#utility.yul\":621:684   */\n    tag_43:\n        /* \"#utility.yul\":568:690   */\n      pop\n      jump\t// out\n        /* \"#utility.yul\":696:835   */\n    tag_24:\n        /* \"#utility.yul\":742:747   */\n      0x00\n        /* \"#utility.yul\":780:786   */\n      dup2\n        /* \"#utility.yul\":767:787   */\n      calldataload\n        /* \"#utility.yul\":758:787   */\n      swap1\n      pop\n        /* \"#utility.yul\":796:829   */\n      tag_45\n        /* \"#utility.yul\":823:828   */\n      dup2\n        /* \"#utility.yul\":796:829   */\n      tag_23\n      jump\t// in\n    tag_45:\n        /* \"#utility.yul\":696:835   */\n      swap3\n      swap2\n      pop\n      pop\n      jump\t// out\n        /* \"#utility.yul\":841:918   */\n    tag_25:\n        /* \"#utility.yul\":878:885   */\n      0x00\n        /* \"#utility.yul\":907:912   */\n      dup2\n        /* \"#utility.yul\":896:912   */\n      swap1\n      pop\n        /* \"#utility.yul\":841:918   */\n      swap2\n      swap1\n      pop\n      jump\t// out\n        /* \"#utility.yul\":924:1046   */\n    tag_26:\n        /* \"#utility.yul\":997:1021   */\n      tag_48\n        /* \"#utility.yul\":1015:1020   */\n      dup2\n        /* \"#utility.yul\":997:1021   */\n      tag_25\n      jump\t// in\n    tag_48:\n        /* \"#utility.yul\":990:995   */\n      dup2\n        /* \"#utility.yul\":987:1022   */\n      eq\n        /* \"#utility.yul\":977:1040   */\n      tag_49\n      jumpi\n        /* \"#utility.yul\":1036:1037   */\n      0x00\n        /* \"#utility.yul\":1033:1034   */\n      dup1\n        /* \"#utility.yul\":1026:1038   */\n      revert\n        /* \"#utility.yul\":977:1040   */\n    tag_49:\n        /* \"#utility.yul\":924:1046   */\n      pop\n      jump\t// out\n        /* \"#utility.yul\":1052:1191   */\n    tag_27:\n        /* \"#utility.yul\":1098:1103   */\n      0x00\n        /* \"#utility.yul\":1136:1142   */\n      dup2\n        /* \"#utility.yul\":1123:1143   */\n      calldataload\n        /* \"#utility.yul\":1114:1143   */\n      swap1\n      pop\n        /* \"#utility.yul\":1152:1185   */\n      tag_51\n        /* \"#utility.yul\":1179:1184   */\n      dup2\n        /* \"#utility.yul\":1152:1185   */\n      tag_26\n      jump\t// in\n    tag_51:\n        /* \"#utility.yul\":1052:1191   */\n      swap3\n      swap2\n      pop\n      pop\n      jump\t// out\n        /* \"#utility.yul\":1197:1671   */\n    tag_6:\n        /* \"#utility.yul\":1265:1271   */\n      0x00\n        /* \"#utility.yul\":1273:1279   */\n      dup1\n        /* \"#utility.yul\":1322:1324   */\n      0x40\n        /* \"#utility.yul\":1310:1319   */\n      dup4\n        /* \"#utility.yul\":1301:1308   */\n      dup6\n        /* \"#utility.yul\":1297:1320   */\n      sub\n        /* \"#utility.yul\":1293:1325   */\n      slt\n        /* \"#utility.yul\":1290:1409   */\n      iszero\n      tag_53\n      jumpi\n        /* \"#utility.yul\":1328:1407   */\n      tag_54\n      tag_19\n      jump\t// in\n    tag_54:\n        /* \"#utility.yul\":1290:1409   */\n    tag_53:\n        /* \"#utility.yul\":1448:1449   */\n      0x00\n        /* \"#utility.yul\":1473:1526   */\n      tag_55\n        /* \"#utility.yul\":1518:1525   */\n      dup6\n        /* \"#utility.yul\":1509:1515   */\n      dup3\n        /* \"#utility.yul\":1498:1507   */\n      dup7\n        /* \"#utility.yul\":1494:1516   */\n      add\n        /* \"#utility.yul\":1473:1526   */\n      tag_24\n      jump\t// in\n    tag_55:\n        /* \"#utility.yul\":1463:1526   */\n      swap3\n      pop\n        /* \"#utility.yul\":1419:1536   */\n      pop\n        /* \"#utility.yul\":1575:1577   */\n      0x20\n        /* \"#utility.yul\":1601:1654   */\n      tag_56\n        /* \"#utility.yul\":1646:1653   */\n      dup6\n        /* \"#utility.yul\":1637:1643   */\n      dup3\n        /* \"#utility.yul\":1626:1635   */\n      dup7\n        /* \"#utility.yul\":1622:1644   */\n      add\n        /* \"#utility.yul\":1601:1654   */\n      tag_27\n      jump\t// in\n    tag_56:\n        /* \"#utility.yul\":1591:1654   */\n      swap2\n      pop\n        /* \"#utility.yul\":1546:1664   */\n      pop\n        /* \"#utility.yul\":1197:1671   */\n      swap3\n      pop\n      swap3\n      swap1\n      pop\n      jump\t// out\n        /* \"#utility.yul\":1677:1846   */\n    tag_28:\n        /* \"#utility.yul\":1761:1772   */\n      0x00\n        /* \"#utility.yul\":1795:1801   */\n      dup3\n        /* \"#utility.yul\":1790:1793   */\n      dup3\n        /* \"#utility.yul\":1783:1802   */\n      mstore\n        /* \"#utility.yul\":1835:1839   */\n      0x20\n        /* \"#utility.yul\":1830:1833   */\n      dup3\n        /* \"#utility.yul\":1826:1840   */\n      add\n        /* \"#utility.yul\":1811:1840   */\n      swap1\n      pop\n        /* \"#utility.yul\":1677:1846   */\n      swap3\n      swap2\n      pop\n      pop\n      jump\t// out\n        /* \"#utility.yul\":1852:2021   */\n    tag_29:\n        /* \"#utility.yul\":1992:2013   */\n      0x696e737566666963656e742062616c616e636500000000000000000000000000\n        /* \"#utility.yul\":1988:1989   */\n      0x00\n        /* \"#utility.yul\":1980:1986   */\n      dup3\n        /* \"#utility.yul\":1976:1990   */\n      add\n        /* \"#utility.yul\":1969:2014   */\n      mstore\n        /* \"#utility.yul\":1852:2021   */\n      pop\n      jump\t// out\n        /* \"#utility.yul\":2027:2393   */\n    tag_30:\n        /* \"#utility.yul\":2169:2172   */\n      0x00\n        /* \"#utility.yul\":2190:2257   */\n      tag_60\n        /* \"#utility.yul\":2254:2256   */\n      0x13\n        /* \"#utility.yul\":2249:2252   */\n      dup4\n        /* \"#utility.yul\":2190:2257   */\n      tag_28\n      jump\t// in\n    tag_60:\n        /* \"#utility.yul\":2183:2257   */\n      swap2\n      pop\n        /* \"#utility.yul\":2266:2359   */\n      tag_61\n        /* \"#utility.yul\":2355:2358   */\n      dup3\n        /* \"#utility.yul\":2266:2359   */\n      tag_29\n      jump\t// in\n    tag_61:\n        /* \"#utility.yul\":2384:2386   */\n      0x20\n        /* \"#utility.yul\":2379:2382   */\n      dup3\n        /* \"#utility.yul\":2375:2387   */\n      add\n        /* \"#utility.yul\":2368:2387   */\n      swap1\n      pop\n        /* \"#utility.yul\":2027:2393   */\n      swap2\n      swap1\n      pop\n      jump\t// out\n        /* \"#utility.yul\":2399:2818   */\n    tag_11:\n        /* \"#utility.yul\":2565:2569   */\n      0x00\n        /* \"#utility.yul\":2603:2605   */\n      0x20\n        /* \"#utility.yul\":2592:2601   */\n      dup3\n        /* \"#utility.yul\":2588:2606   */\n      add\n        /* \"#utility.yul\":2580:2606   */\n      swap1\n      pop\n        /* \"#utility.yul\":2652:2661   */\n      dup2\n        /* \"#utility.yul\":2646:2650   */\n      dup2\n        /* \"#utility.yul\":2642:2662   */\n      sub\n        /* \"#utility.yul\":2638:2639   */\n      0x00\n        /* \"#utility.yul\":2627:2636   */\n      dup4\n        /* \"#utility.yul\":2623:2640   */\n      add\n        /* \"#utility.yul\":2616:2663   */\n      mstore\n        /* \"#utility.yul\":2680:2811   */\n      tag_63\n        /* \"#utility.yul\":2806:2810   */\n      dup2\n        /* \"#utility.yul\":2680:2811   */\n      tag_30\n      jump\t// in\n    tag_63:\n        /* \"#utility.yul\":2672:2811   */\n      swap1\n      pop\n        /* \"#utility.yul\":2399:2818   */\n      swap2\n      swap1\n      pop\n      jump\t// out\n        /* \"#utility.yul\":2824:3004   */\n    tag_31:\n        /* \"#utility.yul\":2872:2949   */\n      0x4e487b7100000000000000000000000000000000000000000000000000000000\n        /* \"#utility.yul\":2869:2870   */\n      0x00\n        /* \"#utility.yul\":2862:2950   */\n      mstore\n        /* \"#utility.yul\":2969:2973   */\n      0x11\n        /* \"#utility.yul\":2966:2967   */\n      0x04\n        /* \"#utility.yul\":2959:2974   */\n      mstore\n        /* \"#utility.yul\":2993:2997   */\n      0x24\n        /* \"#utility.yul\":2990:2991   */\n      0x00\n        /* \"#utility.yul\":2983:2998   */\n      revert\n        /* \"#utility.yul\":3010:3201   */\n    tag_13:\n        /* \"#utility.yul\":3050:3054   */\n      0x00\n        /* \"#utility.yul\":3070:3090   */\n      tag_66\n        /* \"#utility.yul\":3088:3089   */\n      dup3\n        /* \"#utility.yul\":3070:3090   */\n      tag_25\n      jump\t// in\n    tag_66:\n        /* \"#utility.yul\":3065:3090   */\n      swap2\n      pop\n        /* \"#utility.yul\":3104:3124   */\n      tag_67\n        /* \"#utility.yul\":3122:3123   */\n      dup4\n        /* \"#utility.yul\":3104:3124   */\n      tag_25\n      jump\t// in\n    tag_67:\n        /* \"#utility.yul\":3099:3124   */\n      swap3\n      pop\n        /* \"#utility.yul\":3143:3144   */\n      dup3\n        /* \"#utility.yul\":3140:3141   */\n      dup3\n        /* \"#utility.yul\":3137:3145   */\n      lt\n        /* \"#utility.yul\":3134:3168   */\n      iszero\n      tag_68\n      jumpi\n        /* \"#utility.yul\":3148:3166   */\n      tag_69\n      tag_31\n      jump\t// in\n    tag_69:\n        /* \"#utility.yul\":3134:3168   */\n    tag_68:\n        /* \"#utility.yul\":3193:3194   */\n      dup3\n        /* \"#utility.yul\":3190:3191   */\n      dup3\n        /* \"#utility.yul\":3186:3195   */\n      sub\n        /* \"#utility.yul\":3178:3195   */\n      swap1\n      pop\n        /* \"#utility.yul\":3010:3201   */\n      swap3\n      swap2\n      pop\n      pop\n      jump\t// out\n        /* \"#utility.yul\":3207:3512   */\n    tag_15:\n        /* \"#utility.yul\":3247:3250   */\n      0x00\n        /* \"#utility.yul\":3266:3286   */\n      tag_71\n        /* \"#utility.yul\":3284:3285   */\n      dup3\n        /* \"#utility.yul\":3266:3286   */\n      tag_25\n      jump\t// in\n    tag_71:\n        /* \"#utility.yul\":3261:3286   */\n      swap2\n      pop\n        /* \"#utility.yul\":3300:3320   */\n      tag_72\n        /* \"#utility.yul\":3318:3319   */\n      dup4\n        /* \"#utility.yul\":3300:3320   */\n      tag_25\n      jump\t// in\n    tag_72:\n        /* \"#utility.yul\":3295:3320   */\n      swap3\n      pop\n        /* \"#utility.yul\":3454:3455   */\n      dup3\n        /* \"#utility.yul\":3386:3452   */\n      0xffffffffffffffffffffffffffffffffffffffffffffffffffffffffffffffff\n        /* \"#utility.yul\":3382:3456   */\n      sub\n        /* \"#utility.yul\":3379:3380   */\n      dup3\n        /* \"#utility.yul\":3376:3457   */\n      gt\n        /* \"#utility.yul\":3373:3480   */\n      iszero\n      tag_73\n      jumpi\n        /* \"#utility.yul\":3460:3478   */\n      tag_74\n      tag_31\n      jump\t// in\n    tag_74:\n        /* \"#utility.yul\":3373:3480   */\n    tag_73:\n        /* \"#utility.yul\":3504:3505   */\n      dup3\n        /* \"#utility.yul\":3501:3502   */\n      dup3\n        /* \"#utility.yul\":3497:3506   */\n      add\n        /* \"#utility.yul\":3490:3506   */\n      swap1\n      pop\n        /* \"#utility.yul\":3207:3512   */\n      swap3\n      swap2\n      pop\n      pop\n      jump\t// out\n        /* \"#utility.yul\":3518:3636   */\n    tag_32:\n        /* \"#utility.yul\":3605:3629   */\n      tag_76\n        /* \"#utility.yul\":3623:3628   */\n      dup2\n        /* \"#utility.yul\":3605:3629   */\n      tag_22\n      jump\t// in\n    tag_76:\n        /* \"#utility.yul\":3600:3603   */\n      dup3\n        /* \"#utility.yul\":3593:3630   */\n      mstore\n        /* \"#utility.yul\":3518:3636   */\n      pop\n      pop\n      jump\t// out\n        /* \"#utility.yul\":3642:3760   */\n    tag_33:\n        /* \"#utility.yul\":3729:3753   */\n      tag_78\n        /* \"#utility.yul\":3747:3752   */\n      dup2\n        /* \"#utility.yul\":3729:3753   */\n      tag_25\n      jump\t// in\n    tag_78:\n        /* \"#utility.yul\":3724:3727   */\n      dup3\n        /* \"#utility.yul\":3717:3754   */\n      mstore\n        /* \"#utility.yul\":3642:3760   */\n      pop\n      pop\n      jump\t// out\n        /* \"#utility.yul\":3766:4208   */\n    tag_17:\n        /* \"#utility.yul\":3915:3919   */\n      0x00\n        /* \"#utility.yul\":3953:3955   */\n      0x60\n        /* \"#utility.yul\":3942:3951   */\n      dup3\n        /* \"#utility.yul\":3938:3956   */\n      add\n        /* \"#utility.yul\":3930:3956   */\n      swap1\n      pop\n        /* \"#utility.yul\":3966:4037   */\n      tag_80\n        /* \"#utility.yul\":4034:4035   */\n      0x00\n        /* \"#utility.yul\":4023:4032   */\n      dup4\n        /* \"#utility.yul\":4019:4036   */\n      add\n        /* \"#utility.yul\":4010:4016   */\n      dup7\n        /* \"#utility.yul\":3966:4037   */\n      tag_32\n      jump\t// in\n    tag_80:\n        /* \"#utility.yul\":4047:4119   */\n      tag_81\n        /* \"#utility.yul\":4115:4117   */\n      0x20\n        /* \"#utility.yul\":4104:4113   */\n      dup4\n        /* \"#utility.yul\":4100:4118   */\n      add\n        /* \"#utility.yul\":4091:4097   */\n      dup6\n        /* \"#utility.yul\":4047:4119   */\n      tag_32\n      jump\t// in\n    tag_81:\n        /* \"#utility.yul\":4129:4201   */\n      tag_82\n        /* \"#utility.yul\":4197:4199   */\n      0x40\n        /* \"#utility.yul\":4186:4195   */\n      dup4\n        /* \"#utility.yul\":4182:4200   */\n      add\n        /* \"#utility.yul\":4173:4179   */\n      dup5\n        /* \"#utility.yul\":4129:4201   */\n      tag_33\n      jump\t// in\n    tag_82:\n        /* \"#utility.yul\":3766:4208   */\n      swap5\n      swap4\n      pop\n      pop\n      pop\n      pop\n      jump\t// out\n\n    auxdata: 0xa26469706673582212208692cb11811d3f6be731b53787f1bfa08b999c5d5197d9a926b482dd6ae9db4664736f6c634300080f0033\n}\n",
				"bytecode": {
					"linkReferences": {},
					"object": "608060405234801561001057600080fd5b5060646000803373ffffffffffffffffffffffffffffffffffffffff1673ffffffffffffffffffffffffffffffffffffffff16815260200190815260200160002081905550610450806100646000396000f3fe608060405234801561001057600080fd5b506004361061002b5760003560e01c8063412664ae14610030575b600080fd5b61004a6004803603810190610045919061024f565b61004c565b005b806000803373ffffffffffffffffffffffffffffffffffffffff1673ffffffffffffffffffffffffffffffffffffffff1681526020019081526020016000205410156100cd576040517f08c379a00000000000000000000000000000000000000000000000000000000081526004016100c4906102ec565b60405180910390fd5b806000803373ffffffffffffffffffffffffffffffffffffffff1673ffffffffffffffffffffffffffffffffffffffff168152602001908152602001600020600082825461011b919061033b565b92505081905550806000808473ffffffffffffffffffffffffffffffffffffffff1673ffffffffffffffffffffffffffffffffffffffff1681526020019081526020016000206000828254610170919061036f565b925050819055507f16a1605b4e6210f29341360b5a5b4627b7ccf2bbb184f1d0c2ebe1a07ad4a3153383836040516101aa939291906103e3565b60405180910390a15050565b600080fd5b600073ffffffffffffffffffffffffffffffffffffffff82169050919050565b60006101e6826101bb565b9050919050565b6101f6816101db565b811461020157600080fd5b50565b600081359050610213816101ed565b92915050565b6000819050919050565b61022c81610219565b811461023757600080fd5b50565b60008135905061024981610223565b92915050565b60008060408385031215610266576102656101b6565b5b600061027485828601610204565b92505060206102858582860161023a565b9150509250929050565b600082825260208201905092915050565b7f696e737566666963656e742062616c616e636500000000000000000000000000600082015250565b60006102d660138361028f565b91506102e1826102a0565b602082019050919050565b60006020820190508181036000830152610305816102c9565b9050919050565b7f4e487b7100000000000000000000000000000000000000000000000000000000600052601160045260246000fd5b600061034682610219565b915061035183610219565b9250828210156103645761036361030c565b5b828203905092915050565b600061037a82610219565b915061038583610219565b9250827fffffffffffffffffffffffffffffffffffffffffffffffffffffffffffffffff038211156103ba576103b961030c565b5b828201905092915050565b6103ce816101db565b82525050565b6103dd81610219565b82525050565b60006060820190506103f860008301866103c5565b61040560208301856103c5565b61041260408301846103d4565b94935050505056fea26469706673582212208692cb11811d3f6be731b53787f1bfa08b999c5d5197d9a926b482dd6ae9db4664736f6c634300080f0033",
					"opcodes": "PUSH1 0x80 PUSH1 0x40 MSTORE CALLVALUE DUP1 ISZERO PUSH2 0x10 JUMPI PUSH1 0x0 DUP1 REVERT JUMPDEST POP PUSH1 0x64 PUSH1 0x0 DUP1 CALLER PUSH20 0xFFFFFFFFFFFFFFFFFFFFFFFFFFFFFFFFFFFFFFFF AND PUSH20 0xFFFFFFFFFFFFFFFFFFFFFFFFFFFFFFFFFFFFFFFF AND DUP2 MSTORE PUSH1 0x20 ADD SWAP1 DUP2 MSTORE PUSH1 0x20 ADD PUSH1 0x0 KECCAK256 DUP2 SWAP1 SSTORE POP PUSH2 0x450 DUP1 PUSH2 0x64 PUSH1 0x0 CODECOPY PUSH1 0x0 RETURN INVALID PUSH1 0x80 PUSH1 0x40 MSTORE CALLVALUE DUP1 ISZERO PUSH2 0x10 JUMPI PUSH1 0x0 DUP1 REVERT JUMPDEST POP PUSH1 0x4 CALLDATASIZE LT PUSH2 0x2B JUMPI PUSH1 0x0 CALLDATALOAD PUSH1 0xE0 SHR DUP1 PUSH4 0x412664AE EQ PUSH2 0x30 JUMPI JUMPDEST PUSH1 0x0 DUP1 REVERT JUMPDEST PUSH2 0x4A PUSH1 0x4 DUP1 CALLDATASIZE SUB DUP2 ADD SWAP1 PUSH2 0x45 SWAP2 SWAP1 PUSH2 0x24F JUMP JUMPDEST PUSH2 0x4C JUMP JUMPDEST STOP JUMPDEST DUP1 PUSH1 0x0 DUP1 CALLER PUSH20 0xFFFFFFFFFFFFFFFFFFFFFFFFFFFFFFFFFFFFFFFF AND PUSH20 0xFFFFFFFFFFFFFFFFFFFFFFFFFFFFFFFFFFFFFFFF AND DUP2 MSTORE PUSH1 0x20 ADD SWAP1 DUP2 MSTORE PUSH1 0x20 ADD PUSH1 0x0 KECCAK256 SLOAD LT ISZERO PUSH2 0xCD JUMPI PUSH1 0x40 MLOAD PUSH32 0x8C379A000000000000000000000000000000000000000000000000000000000 DUP2 MSTORE PUSH1 0x4 ADD PUSH2 0xC4 SWAP1 PUSH2 0x2EC JUMP JUMPDEST PUSH1 0x40 MLOAD DUP1 SWAP2 SUB SWAP1 REVERT JUMPDEST DUP1 PUSH1 0x0 DUP1 CALLER PUSH20 0xFFFFFFFFFFFFFFFFFFFFFFFFFFFFFFFFFFFFFFFF AND PUSH20 0xFFFFFFFFFFFFFFFFFFFFFFFFFFFFFFFFFFFFFFFF AND DUP2 MSTORE PUSH1 0x20 ADD SWAP1 DUP2 MSTORE PUSH1 0x20 ADD PUSH1 0x0 KECCAK256 PUSH1 0x0 DUP3 DUP3 SLOAD PUSH2 0x11B SWAP2 SWAP1 PUSH2 0x33B JUMP JUMPDEST SWAP3 POP POP DUP2 SWAP1 SSTORE POP DUP1 PUSH1 0x0 DUP1 DUP5 PUSH20 0xFFFFFFFFFFFFFFFFFFFFFFFFFFFFFFFFFFFFFFFF AND PUSH20 0xFFFFFFFFFFFFFFFFFFFFFFFFFFFFFFFFFFFFFFFF AND DUP2 MSTORE PUSH1 0x20 ADD SWAP1 DUP2 MSTORE PUSH1 0x20 ADD PUSH1 0x0 KECCAK256 PUSH1 0x0 DUP3 DUP3 SLOAD PUSH2 0x170 SWAP2 SWAP1 PUSH2 0x36F JUMP JUMPDEST SWAP3 POP POP DUP2 SWAP1 SSTORE POP PUSH32 0x16A1605B4E6210F29341360B5A5B4627B7CCF2BBB184F1D0C2EBE1A07AD4A315 CALLER DUP4 DUP4 PUSH1 0x40 MLOAD PUSH2 0x1AA SWAP4 SWAP3 SWAP2 SWAP1 PUSH2 0x3E3 JUMP JUMPDEST PUSH1 0x40 MLOAD DUP1 SWAP2 SUB SWAP1 LOG1 POP POP JUMP JUMPDEST PUSH1 0x0 DUP1 REVERT JUMPDEST PUSH1 0x0 PUSH20 0xFFFFFFFFFFFFFFFFFFFFFFFFFFFFFFFFFFFFFFFF DUP3 AND SWAP1 POP SWAP2 SWAP1 POP JUMP JUMPDEST PUSH1 0x0 PUSH2 0x1E6 DUP3 PUSH2 0x1BB JUMP JUMPDEST SWAP1 POP SWAP2 SWAP1 POP JUMP JUMPDEST PUSH2 0x1F6 DUP2 PUSH2 0x1DB JUMP JUMPDEST DUP2 EQ PUSH2 0x201 JUMPI PUSH1 0x0 DUP1 REVERT JUMPDEST POP JUMP JUMPDEST PUSH1 0x0 DUP2 CALLDATALOAD SWAP1 POP PUSH2 0x213 DUP2 PUSH2 0x1ED JUMP JUMPDEST SWAP3 SWAP2 POP POP JUMP JUMPDEST PUSH1 0x0 DUP2 SWAP1 POP SWAP2 SWAP1 POP JUMP JUMPDEST PUSH2 0x22C DUP2 PUSH2 0x219 JUMP JUMPDEST DUP2 EQ PUSH2 0x237 JUMPI PUSH1 0x0 DUP1 REVERT JUMPDEST POP JUMP JUMPDEST PUSH1 0x0 DUP2 CALLDATALOAD SWAP1 POP PUSH2 0x249 DUP2 PUSH2 0x223 JUMP JUMPDEST SWAP3 SWAP2 POP POP JUMP JUMPDEST PUSH1 0x0 DUP1 PUSH1 0x40 DUP4 DUP6 SUB SLT ISZERO PUSH2 0x266 JUMPI PUSH2 0x265 PUSH2 0x1B6 JUMP JUMPDEST JUMPDEST PUSH1 0x0 PUSH2 0x274 DUP6 DUP3 DUP7 ADD PUSH2 0x204 JUMP JUMPDEST SWAP3 POP POP PUSH1 0x20 PUSH2 0x285 DUP6 DUP3 DUP7 ADD PUSH2 0x23A JUMP JUMPDEST SWAP2 POP POP SWAP3 POP SWAP3 SWAP1 POP JUMP JUMPDEST PUSH1 0x0 DUP3 DUP3 MSTORE PUSH1 0x20 DUP3 ADD SWAP1 POP SWAP3 SWAP2 POP POP JUMP JUMPDEST PUSH32 0x696E737566666963656E742062616C616E636500000000000000000000000000 PUSH1 0x0 DUP3 ADD MSTORE POP JUMP JUMPDEST PUSH1 0x0 PUSH2 0x2D6 PUSH1 0x13 DUP4 PUSH2 0x28F JUMP JUMPDEST SWAP2 POP PUSH2 0x2E1 DUP3 PUSH2 0x2A0 JUMP JUMPDEST PUSH1 0x20 DUP3 ADD SWAP1 POP SWAP2 SWAP1 POP JUMP JUMPDEST PUSH1 0x0 PUSH1 0x20 DUP3 ADD SWAP1 POP DUP2 DUP2 SUB PUSH1 0x0 DUP4 ADD MSTORE PUSH2 0x305 DUP2 PUSH2 0x2C9 JUMP JUMPDEST SWAP1 POP SWAP2 SWAP1 POP JUMP JUMPDEST PUSH32 0x4E487B7100000000000000000000000000000000000000000000000000000000 PUSH1 0x0 MSTORE PUSH1 0x11 PUSH1 0x4 MSTORE PUSH1 0x24 PUSH1 0x0 REVERT JUMPDEST PUSH1 0x0 PUSH2 0x346 DUP3 PUSH2 0x219 JUMP JUMPDEST SWAP2 POP PUSH2 0x351 DUP4 PUSH2 0x219 JUMP JUMPDEST SWAP3 POP DUP3 DUP3 LT ISZERO PUSH2 0x364 JUMPI PUSH2 0x363 PUSH2 0x30C JUMP JUMPDEST JUMPDEST DUP3 DUP3 SUB SWAP1 POP SWAP3 SWAP2 POP POP JUMP JUMPDEST PUSH1 0x0 PUSH2 0x37A DUP3 PUSH2 0x219 JUMP JUMPDEST SWAP2 POP PUSH2 0x385 DUP4 PUSH2 0x219 JUMP JUMPDEST SWAP3 POP DUP3 PUSH32 0xFFFFFFFFFFFFFFFFFFFFFFFFFFFFFFFFFFFFFFFFFFFFFFFFFFFFFFFFFFFFFFFF SUB DUP3 GT ISZERO PUSH2 0x3BA JUMPI PUSH2 0x3B9 PUSH2 0x30C JUMP JUMPDEST JUMPDEST DUP3 DUP3 ADD SWAP1 POP SWAP3 SWAP2 POP POP JUMP JUMPDEST PUSH2 0x3CE DUP2 PUSH2 0x1DB JUMP JUMPDEST DUP3 MSTORE POP POP JUMP JUMPDEST PUSH2 0x3DD DUP2 PUSH2 0x219 JUMP JUMPDEST DUP3 MSTORE POP POP JUMP JUMPDEST PUSH1 0x0 PUSH1 0x60 DUP3 ADD SWAP1 POP PUSH2 0x3F8 PUSH1 0x0 DUP4 ADD DUP7 PUSH2 0x3C5 JUMP JUMPDEST PUSH2 0x405 PUSH1 0x20 DUP4 ADD DUP6 PUSH2 0x3C5 JUMP JUMPDEST PUSH2 0x412 PUSH1 0x40 DUP4 ADD DUP5 PUSH2 0x3D4 JUMP JUMPDEST SWAP5 SWAP4 POP POP POP POP JUMP INVALID LOG2 PUSH5 0x6970667358 0x22 SLT KECCAK256 DUP7 SWAP3 0xCB GT DUP2 SAR EXTCODEHASH PUSH12 0xE731B53787F1BFA08B999C5D MLOAD SWAP8 0xD9 0xA9 0x26 0xB4 DUP3 0xDD PUSH11 0xE9DB4664736F6C63430008 0xF STOP CALLER "
				},
				"gasEstimates": {
					"creation": {
						"codeDepositCost": "220800",
						"executionCost": "22466",
						"totalCost": "243266"
					},
					"external": {
						"sendToken(address,uint256)": "infinite"
					}
				},
				"methodIdentifiers": {
					"sendToken(address,uint256)": "412664ae"
				}
			},
			"storageLayout": {
				"storage": [
					{
						"astId": 5,
						"contract": "contracts/exampleEvent.sol:EventExample",
						"label": "balance",
						"offset": 0,
						"slot": "0",
						"type": "t_mapping(t_address,t_uint256)"
					}
				],
				"types": {
					"t_address": {
						"encoding": "inplace",
						"label": "address",
						"numberOfBytes": "20"
					},
					"t_mapping(t_address,t_uint256)": {
						"encoding": "mapping",
						"key": "t_address",
						"label": "mapping(address => uint256)",
						"numberOfBytes": "32",
						"value": "t_uint256"
					},
					"t_uint256": {
						"encoding": "inplace",
						"label": "uint256",
						"numberOfBytes": "32"
					}
				}
			},
			"userdoc": {
				"kind": "user",
				"methods": {},
				"version": 1
			}
		}
	}
}